{
  "address": "0xe0E2558ed68A8024364f2ed21f7E6e649c848e2c",
  "abi": [
    {
      "inputs": [
        {
          "internalType": "address",
          "name": "cre8orsNFT_",
          "type": "address"
        },
        {
          "internalType": "uint64",
          "name": "minRenewalDuration_",
          "type": "uint64"
        },
        {
          "internalType": "uint256",
          "name": "pricePerSecond_",
          "type": "uint256"
        }
      ],
      "stateMutability": "nonpayable",
      "type": "constructor"
    },
    {
      "inputs": [],
      "name": "Access_MissingOwnerOrApproved",
      "type": "error"
    },
    {
      "inputs": [
        {
          "internalType": "bytes32",
          "name": "role",
          "type": "bytes32"
        }
      ],
      "name": "Access_MissingRoleOrAdmin",
      "type": "error"
    },
    {
      "inputs": [],
      "name": "Access_OnlyAdmin",
      "type": "error"
    },
    {
      "inputs": [],
      "name": "AddressCannotBeZero",
      "type": "error"
    },
    {
      "inputs": [],
      "name": "DurationForRenewalPriceCannotBeZero",
      "type": "error"
    },
    {
      "inputs": [],
      "name": "ETHTransferFailed",
      "type": "error"
    },
    {
      "inputs": [],
      "name": "InsufficientPayment",
      "type": "error"
    },
    {
      "inputs": [],
      "name": "InvalidSubscription",
      "type": "error"
    },
    {
      "inputs": [],
      "name": "RenewalTooLong",
      "type": "error"
    },
    {
      "inputs": [],
      "name": "RenewalTooShort",
      "type": "error"
    },
    {
      "inputs": [],
      "name": "SubscriptionNotRenewable",
      "type": "error"
    },
    {
      "inputs": [],
      "name": "ValueCannotBeZero",
      "type": "error"
    },
    {
      "anonymous": false,
      "inputs": [
        {
          "indexed": false,
          "internalType": "uint64",
          "name": "duration",
          "type": "uint64"
        }
      ],
      "name": "MaxRenewalDurationUpdate",
      "type": "event"
    },
    {
      "anonymous": false,
      "inputs": [
        {
          "indexed": false,
          "internalType": "uint64",
          "name": "duration",
          "type": "uint64"
        }
      ],
      "name": "MinRenewalDurationUpdate",
      "type": "event"
    },
    {
      "anonymous": false,
      "inputs": [
        {
          "indexed": false,
          "internalType": "uint256",
          "name": "newPrice",
          "type": "uint256"
        }
      ],
      "name": "PricePerSecondUpdated",
      "type": "event"
    },
    {
      "anonymous": false,
      "inputs": [
        {
          "indexed": false,
          "internalType": "bool",
          "name": "renewable",
          "type": "bool"
        }
      ],
      "name": "RenewableUpdate",
      "type": "event"
    },
    {
      "anonymous": false,
      "inputs": [
        {
          "indexed": true,
          "internalType": "uint256",
          "name": "tokenId",
          "type": "uint256"
        },
        {
          "indexed": false,
          "internalType": "uint64",
          "name": "expiration",
          "type": "uint64"
        }
      ],
      "name": "SubscriptionUpdate",
      "type": "event"
    },
    {
      "inputs": [],
      "name": "MINTER_ROLE",
      "outputs": [
        {
          "internalType": "bytes32",
          "name": "",
          "type": "bytes32"
        }
      ],
      "stateMutability": "view",
      "type": "function"
    },
    {
      "inputs": [
        {
          "internalType": "uint256",
          "name": "tokenId",
          "type": "uint256"
        }
      ],
      "name": "cancelSubscription",
      "outputs": [],
      "stateMutability": "payable",
      "type": "function"
    },
    {
      "inputs": [
        {
          "internalType": "uint256",
          "name": "tokenId",
          "type": "uint256"
        }
      ],
      "name": "checkSubscription",
      "outputs": [],
      "stateMutability": "view",
      "type": "function"
    },
    {
      "inputs": [],
      "name": "cre8orsNFT",
      "outputs": [
        {
          "internalType": "address",
          "name": "",
          "type": "address"
        }
      ],
      "stateMutability": "view",
      "type": "function"
    },
    {
      "inputs": [
        {
          "internalType": "uint256",
          "name": "tokenId",
          "type": "uint256"
        }
      ],
      "name": "expiresAt",
      "outputs": [
        {
          "internalType": "uint64",
          "name": "",
          "type": "uint64"
        }
      ],
      "stateMutability": "view",
      "type": "function"
    },
    {
      "inputs": [
        {
          "internalType": "address",
          "name": "target",
          "type": "address"
        },
        {
          "internalType": "address",
          "name": "user",
          "type": "address"
        }
      ],
      "name": "isAdmin",
      "outputs": [
        {
          "internalType": "bool",
          "name": "",
          "type": "bool"
        }
      ],
      "stateMutability": "view",
      "type": "function"
    },
    {
      "inputs": [
        {
          "internalType": "uint256",
          "name": "",
          "type": "uint256"
        }
      ],
      "name": "isRenewable",
      "outputs": [
        {
          "internalType": "bool",
          "name": "",
          "type": "bool"
        }
      ],
      "stateMutability": "view",
      "type": "function"
    },
    {
      "inputs": [
        {
          "internalType": "uint256",
          "name": "tokenId",
          "type": "uint256"
        }
      ],
      "name": "isSubscriptionValid",
      "outputs": [
        {
          "internalType": "bool",
          "name": "",
          "type": "bool"
        }
      ],
      "stateMutability": "view",
      "type": "function"
    },
    {
      "inputs": [],
      "name": "maxRenewalDuration",
      "outputs": [
        {
          "internalType": "uint64",
          "name": "",
          "type": "uint64"
        }
      ],
      "stateMutability": "view",
      "type": "function"
    },
    {
      "inputs": [],
      "name": "minRenewalDuration",
      "outputs": [
        {
          "internalType": "uint64",
          "name": "",
          "type": "uint64"
        }
      ],
      "stateMutability": "view",
      "type": "function"
    },
    {
      "inputs": [],
      "name": "pricePerSecond",
      "outputs": [
        {
          "internalType": "uint256",
          "name": "",
          "type": "uint256"
        }
      ],
      "stateMutability": "view",
      "type": "function"
    },
    {
      "inputs": [
        {
          "internalType": "uint256",
          "name": "tokenId",
          "type": "uint256"
        },
        {
          "internalType": "uint64",
          "name": "duration",
          "type": "uint64"
        }
      ],
      "name": "renewSubscription",
      "outputs": [],
      "stateMutability": "payable",
      "type": "function"
    },
    {
      "inputs": [
        {
          "internalType": "address",
          "name": "target",
          "type": "address"
        }
      ],
      "name": "setCre8orsNFT",
      "outputs": [],
      "stateMutability": "nonpayable",
      "type": "function"
    },
    {
      "inputs": [
        {
          "internalType": "address",
          "name": "target",
          "type": "address"
        },
        {
          "internalType": "uint64",
          "name": "duration",
          "type": "uint64"
        }
      ],
      "name": "setMaxRenewalDuration",
      "outputs": [],
      "stateMutability": "nonpayable",
      "type": "function"
    },
    {
      "inputs": [
        {
          "internalType": "address",
          "name": "target",
          "type": "address"
        },
        {
          "internalType": "uint64",
          "name": "duration",
          "type": "uint64"
        }
      ],
      "name": "setMinRenewalDuration",
      "outputs": [],
      "stateMutability": "nonpayable",
      "type": "function"
    },
    {
      "inputs": [
        {
          "internalType": "address",
          "name": "target",
          "type": "address"
        },
        {
          "internalType": "uint256",
          "name": "newPrice",
          "type": "uint256"
        }
      ],
      "name": "setPricePerSecond",
      "outputs": [],
      "stateMutability": "nonpayable",
      "type": "function"
    },
    {
      "inputs": [
        {
          "internalType": "address",
          "name": "target",
          "type": "address"
        },
        {
          "internalType": "bool",
          "name": "renewable",
          "type": "bool"
        }
      ],
      "name": "setRenewable",
      "outputs": [],
      "stateMutability": "nonpayable",
      "type": "function"
    },
    {
      "inputs": [
        {
          "internalType": "bytes4",
          "name": "interfaceId",
          "type": "bytes4"
        }
      ],
      "name": "supportsInterface",
      "outputs": [
        {
          "internalType": "bool",
          "name": "",
          "type": "bool"
        }
      ],
      "stateMutability": "view",
      "type": "function"
    },
    {
      "inputs": [
        {
          "internalType": "address",
          "name": "target",
          "type": "address"
        },
        {
          "internalType": "uint64",
          "name": "duration",
          "type": "uint64"
        },
        {
          "internalType": "uint256[]",
          "name": "tokenIds",
          "type": "uint256[]"
        }
      ],
      "name": "updateSubscription",
      "outputs": [],
      "stateMutability": "payable",
      "type": "function"
    },
    {
      "inputs": [
        {
          "internalType": "address",
          "name": "target",
          "type": "address"
        },
        {
          "internalType": "uint64",
          "name": "duration",
          "type": "uint64"
        },
        {
          "internalType": "uint256",
          "name": "tokenId",
          "type": "uint256"
        }
      ],
      "name": "updateSubscription",
      "outputs": [],
      "stateMutability": "payable",
      "type": "function"
    },
    {
      "inputs": [
        {
          "internalType": "address",
          "name": "target",
          "type": "address"
        },
        {
          "internalType": "uint64",
          "name": "duration",
          "type": "uint64"
        },
        {
          "internalType": "uint256",
          "name": "tokenId",
          "type": "uint256"
        }
      ],
      "name": "updateSubscriptionForFree",
      "outputs": [],
      "stateMutability": "nonpayable",
      "type": "function"
    },
    {
      "inputs": [
        {
          "internalType": "address",
          "name": "target",
          "type": "address"
        },
        {
          "internalType": "uint64",
          "name": "duration",
          "type": "uint64"
        },
        {
          "internalType": "uint256[]",
          "name": "tokenIds",
          "type": "uint256[]"
        }
      ],
      "name": "updateSubscriptionForFree",
      "outputs": [],
      "stateMutability": "nonpayable",
      "type": "function"
    },
    {
      "inputs": [
        {
          "internalType": "address",
          "name": "target",
          "type": "address"
        },
        {
          "internalType": "address payable",
          "name": "to",
          "type": "address"
        }
      ],
      "name": "withdraw",
      "outputs": [],
      "stateMutability": "nonpayable",
      "type": "function"
    }
  ],
  "transactionHash": "0x6c31814e6facfb120bcc1564c96a19c789a3218b71eb294cc1fe3bb597664f6d",
  "args": [
    "0x70997970C51812dc3A010C7d01b50e0d17dc79C8",
    86400,
    "38580246913"
  ],
  "numDeployments": 1,
  "solcInputHash": "740e86849d6efbac9c66ece6cc097aae",
  "bytecode": "0x608060405234801561001057600080fd5b5060405161179d38038061179d83398101604081905261002f916100aa565b6000819055828282826001600160a01b03811661005f576040516303988b8160e61b815260040160405180910390fd5b5050600380546001600160a01b0319166001600160a01b039390931692909217909155600280546001600160401b0319166001600160401b0390921691909117905550610105915050565b6000806000606084860312156100bf57600080fd5b83516001600160a01b03811681146100d657600080fd5b60208501519093506001600160401b03811681146100f357600080fd5b80925050604084015190509250925092565b611689806101146000396000f3fe6080604052600436106101405760003560e01c806363d20de7116100b6578063bab4dd461161006f578063bab4dd46146103c0578063cde317af146103e0578063d539139314610400578063d5dca19f14610422578063f3b8f66314610435578063f940e3851461045557600080fd5b806363d20de7146102f3578063776ce868146103135780639100674514610326578063954689ca14610346578063a8fef4a714610380578063b4695d8c146103a057600080fd5b806317c957091161010857806317c957091461020e578063212350831461024457806332fb5c48146102575780633804fd1f1461028f5780634073377c146102b357806357064afe146102d357600080fd5b806301ffc9a71461014557806304394ed91461017a578063090db0291461018f578063147e9782146101ce578063176f7d7c146101ee575b600080fd5b34801561015157600080fd5b5061016561016036600461135b565b610475565b60405190151581526020015b60405180910390f35b61018d6101883660046113b9565b61050d565b005b34801561019b57600080fd5b506002546101b690600160401b90046001600160401b031681565b6040516001600160401b039091168152602001610171565b3480156101da57600080fd5b506002546101b6906001600160401b031681565b3480156101fa57600080fd5b5061018d61020936600461144b565b6106f9565b34801561021a57600080fd5b506101b6610229366004611480565b6000908152600160205260409020546001600160401b031690565b61018d610252366004611480565b61078d565b34801561026357600080fd5b50600354610277906001600160a01b031681565b6040516001600160a01b039091168152602001610171565b34801561029b57600080fd5b506102a560005481565b604051908152602001610171565b3480156102bf57600080fd5b5061018d6102ce36600461144b565b61080c565b3480156102df57600080fd5b5061018d6102ee366004611499565b610889565b3480156102ff57600080fd5b5061018d61030e3660046114c5565b6108e6565b61018d610321366004611503565b610a32565b34801561033257600080fd5b50610165610341366004611526565b610b49565b34801561035257600080fd5b50610165610361366004611480565b600090815260016020526040902054426001600160401b039091161190565b34801561038c57600080fd5b5061018d61039b366004611480565b610bbe565b3480156103ac57600080fd5b5061018d6103bb3660046113b9565b610bfc565b3480156103cc57600080fd5b5061018d6103db36600461155f565b610d7a565b3480156103ec57600080fd5b506101656103fb366004611480565b610dc5565b34801561040c57600080fd5b506102a560008051602061165d83398151915281565b61018d6104303660046114c5565b610dda565b34801561044157600080fd5b5061018d61045036600461158a565b610f7d565b34801561046157600080fd5b5061018d610470366004611526565b610ff2565b60006001600160e01b03198216638c65f84d60e01b148061050757506003546040516301ffc9a760e01b81526001600160e01b0319841660048201526001600160a01b03909116906301ffc9a790602401602060405180830381865afa1580156104e3573d6000803e3d6000fd5b505050506040513d601f19601f8201168201806040525081019061050791906115b8565b92915050565b8360008051602061165d8339815191526105278233610b49565b1580156105a05750604051632474521560e21b8152600481018290523360248201526001600160a01b038316906391d1485490604401602060405180830381865afa15801561057a573d6000803e3d6000fd5b505050506040513d601f19601f8201168201806040525081019061059e91906115b8565b155b156105c6576040516333ba055f60e21b8152600481018290526024015b60405180910390fd5b60025485906001600160401b0390811690821610156105f85760405163e3061ca960e01b815260040160405180910390fd5b600254600160401b90046001600160401b03161580159061062e57506002546001600160401b03600160401b9091048116908216115b1561064c57604051633b44021f60e01b815260040160405180910390fd5b346106606001600160401b038816866115eb565b806001600160401b031660000361068a57604051634beba9c560e01b815260040160405180910390fd5b610693816110d9565b8210156106b35760405163cd1c886760e01b815260040160405180910390fd5b6000805b878110156106ec578888828181106106d1576106d1611602565b9050602002013591506106e4828b6110f0565b6001016106b7565b5050505050505050505050565b816107048133610b49565b610721576040516302bd6bd160e01b815260040160405180910390fd5b600280546fffffffffffffffff00000000000000001916600160401b6001600160401b038516021790556040516001600160401b03831681527f7184449cafc5778c3392f4611de8de52280e7534422b8afbed32112693a8e21b906020015b60405180910390a1505050565b338161079982826111d2565b6107b657604051632a60827160e21b815260040160405180910390fd5b6000838152600160209081526040808320805467ffffffffffffffff191690555191825284917f2ec2be2c4b90c2cf13ecb6751a24daed6bb741ae5ed3f7371aabf9402f6d62e8910160405180910390a2505050565b816108178133610b49565b610834576040516302bd6bd160e01b815260040160405180910390fd5b6002805467ffffffffffffffff19166001600160401b0384161790556040516001600160401b03831681527f62b10fb74dcc07849919c457af8ebac640f6df11273f29e798abe1c43ae5825790602001610780565b816108948133610b49565b6108b1576040516302bd6bd160e01b815260040160405180910390fd5b60008290556040518281527f9bb66cb13f624f691aedcc04a2be58c5c1d73cf9d41593070f0ff9d4f9e410b390602001610780565b8260008051602061165d8339815191526109008233610b49565b1580156109795750604051632474521560e21b8152600481018290523360248201526001600160a01b038316906391d1485490604401602060405180830381865afa158015610953573d6000803e3d6000fd5b505050506040513d601f19601f8201168201806040525081019061097791906115b8565b155b1561099a576040516333ba055f60e21b8152600481018290526024016105bd565b60025484906001600160401b0390811690821610156109cc5760405163e3061ca960e01b815260040160405180910390fd5b600254600160401b90046001600160401b031615801590610a0257506002546001600160401b03600160401b9091048116908216115b15610a2057604051633b44021f60e01b815260040160405180910390fd5b610a2a84866110f0565b505050505050565b3382610a3e82826111d2565b610a5b57604051632a60827160e21b815260040160405180910390fd5b60025483906001600160401b039081169082161015610a8d5760405163e3061ca960e01b815260040160405180910390fd5b600254600160401b90046001600160401b031615801590610ac357506002546001600160401b03600160401b9091048116908216115b15610ae157604051633b44021f60e01b815260040160405180910390fd5b3484806001600160401b0316600003610b0d57604051634beba9c560e01b815260040160405180910390fd5b610b16816110d9565b821015610b365760405163cd1c886760e01b815260040160405180910390fd5b610b4087876110f0565b50505050505050565b604051630935e01b60e21b81526001600160a01b038281166004830152600091908416906324d7806c90602401602060405180830381865afa158015610b93573d6000803e3d6000fd5b505050506040513d601f19601f82011682018060405250810190610bb791906115b8565b9392505050565b600081815260016020526040902054426001600160401b039091161180610bf857604051630fb532db60e11b815260040160405180910390fd5b5050565b8360008051602061165d833981519152610c168233610b49565b158015610c8f5750604051632474521560e21b8152600481018290523360248201526001600160a01b038316906391d1485490604401602060405180830381865afa158015610c69573d6000803e3d6000fd5b505050506040513d601f19601f82011682018060405250810190610c8d91906115b8565b155b15610cb0576040516333ba055f60e21b8152600481018290526024016105bd565b60025485906001600160401b039081169082161015610ce25760405163e3061ca960e01b815260040160405180910390fd5b600254600160401b90046001600160401b031615801590610d1857506002546001600160401b03600160401b9091048116908216115b15610d3657604051633b44021f60e01b815260040160405180910390fd5b6000805b85811015610d6f57868682818110610d5457610d54611602565b905060200201359150610d6782896110f0565b600101610d3a565b505050505050505050565b80610d858133610b49565b610da2576040516302bd6bd160e01b815260040160405180910390fd5b50600380546001600160a01b0319166001600160a01b0392909216919091179055565b600354600090600160a01b900460ff16610507565b8260008051602061165d833981519152610df48233610b49565b158015610e6d5750604051632474521560e21b8152600481018290523360248201526001600160a01b038316906391d1485490604401602060405180830381865afa158015610e47573d6000803e3d6000fd5b505050506040513d601f19601f82011682018060405250810190610e6b91906115b8565b155b15610e8e576040516333ba055f60e21b8152600481018290526024016105bd565b60025484906001600160401b039081169082161015610ec05760405163e3061ca960e01b815260040160405180910390fd5b600254600160401b90046001600160401b031615801590610ef657506002546001600160401b03600160401b9091048116908216115b15610f1457604051633b44021f60e01b815260040160405180910390fd5b3485806001600160401b0316600003610f4057604051634beba9c560e01b815260040160405180910390fd5b610f49816110d9565b821015610f695760405163cd1c886760e01b815260040160405180910390fd5b610f7386886110f0565b5050505050505050565b81610f888133610b49565b610fa5576040516302bd6bd160e01b815260040160405180910390fd5b60038054831515600160a01b0260ff60a01b199091161790556040517f24ec1c131fb5947a129795cb5f89b24f524bd817e733843a630d641b681dfb369061078090841515815260200190565b81610ffd8133610b49565b61101a576040516302bd6bd160e01b815260040160405180910390fd5b816001600160a01b038116611042576040516303988b8160e61b815260040160405180910390fd5b476000819003611065576040516363868c5560e11b815260040160405180910390fd5b6000846001600160a01b03168260405160006040518083038185875af1925050503d80600081146110b2576040519150601f19603f3d011682016040523d82523d6000602084013e6110b7565b606091505b5050905080610a2a5760405163b12d13eb60e01b815260040160405180910390fd5b60008054610507906001600160401b0384166115eb565b6000828152600160205260408120546001600160401b03169081158061111e575042826001600160401b0316105b156111345761112d8342611618565b905061116b565b600354600160a01b900460ff1661115e57604051638b9bff4560e01b815260040160405180910390fd5b6111688383611618565b90505b600084815260016020908152604091829020805467ffffffffffffffff19166001600160401b038516908117909155915191825285917f2ec2be2c4b90c2cf13ecb6751a24daed6bb741ae5ed3f7371aabf9402f6d62e8910160405180910390a250505050565b6003546040516331a9108f60e11b8152600481018390526000916001600160a01b03169082908290636352211e90602401602060405180830381865afa158015611220573d6000803e3d6000fd5b505050506040513d601f19601f82011682018060405250810190611244919061163f565b9050806001600160a01b0316856001600160a01b031614806112d3575060405163e985e9c560e01b81526001600160a01b038281166004830152868116602483015283169063e985e9c590604401602060405180830381865afa1580156112af573d6000803e3d6000fd5b505050506040513d601f19601f820116820180604052508101906112d391906115b8565b80611352575060405163020604bf60e21b8152600481018590526001600160a01b03808716919084169063081812fc90602401602060405180830381865afa158015611323573d6000803e3d6000fd5b505050506040513d601f19601f82011682018060405250810190611347919061163f565b6001600160a01b0316145b95945050505050565b60006020828403121561136d57600080fd5b81356001600160e01b031981168114610bb757600080fd5b6001600160a01b038116811461139a57600080fd5b50565b80356001600160401b03811681146113b457600080fd5b919050565b600080600080606085870312156113cf57600080fd5b84356113da81611385565b93506113e86020860161139d565b925060408501356001600160401b038082111561140457600080fd5b818701915087601f83011261141857600080fd5b81358181111561142757600080fd5b8860208260051b850101111561143c57600080fd5b95989497505060200194505050565b6000806040838503121561145e57600080fd5b823561146981611385565b91506114776020840161139d565b90509250929050565b60006020828403121561149257600080fd5b5035919050565b600080604083850312156114ac57600080fd5b82356114b781611385565b946020939093013593505050565b6000806000606084860312156114da57600080fd5b83356114e581611385565b92506114f36020850161139d565b9150604084013590509250925092565b6000806040838503121561151657600080fd5b823591506114776020840161139d565b6000806040838503121561153957600080fd5b823561154481611385565b9150602083013561155481611385565b809150509250929050565b60006020828403121561157157600080fd5b8135610bb781611385565b801515811461139a57600080fd5b6000806040838503121561159d57600080fd5b82356115a881611385565b915060208301356115548161157c565b6000602082840312156115ca57600080fd5b8151610bb78161157c565b634e487b7160e01b600052601160045260246000fd5b8082028115828204841417610507576105076115d5565b634e487b7160e01b600052603260045260246000fd5b6001600160401b03818116838216019080821115611638576116386115d5565b5092915050565b60006020828403121561165157600080fd5b8151610bb78161138556fef0887ba65ee2024ea881d91b74c2450ef19e1557f03bed3ea9f16b037cbe2dc9a164736f6c6343000813000a",
  "devdoc": {
    "events": {
      "MaxRenewalDurationUpdate(uint64)": {
        "details": "Emitted when the maximum duration for subscription renewal is updated."
      },
      "MinRenewalDurationUpdate(uint64)": {
        "details": "Emitted when the minimum duration for subscription renewal is updated."
      },
      "PricePerSecondUpdated(uint256)": {
        "details": "Emitted when the native currency price is updated.",
        "params": {
          "newPrice": "The new price per second of the native currency."
        }
      },
      "RenewableUpdate(bool)": {
        "details": "Emitted when the renewability status of subscriptions is updated."
      },
      "SubscriptionUpdate(uint256,uint64)": {
        "details": "When a subscription is canceled, the expiration value should also be 0."
      }
    },
    "kind": "dev",
    "methods": {
      "cancelSubscription(uint256)": {
        "details": "Throws if `tokenId` is not a valid NFT",
        "params": {
          "tokenId": "The NFT to cancel the subscription for"
        }
      },
      "checkSubscription(uint256)": {
        "params": {
          "tokenId": "The unique identifier of the NFT token."
        }
      },
      "constructor": {
        "params": {
          "cre8orsNFT_": "The address of the cre8orsNFT contract.",
          "minRenewalDuration_": "The minimum duration allowed for subscription renewal, can be zero.",
          "pricePerSecond_": "The price per second for the subscription, can be zero."
        }
      },
      "expiresAt(uint256)": {
        "details": "Throws if `tokenId` is not a valid NFT",
        "params": {
          "tokenId": "The NFT to get the expiration date of"
        },
        "returns": {
          "_0": "The expiration date of the subscription"
        }
      },
      "isAdmin(address,address)": {
        "params": {
          "target": "The address of the contract implementing the access control",
          "user": "The address to check for admin access"
        },
        "returns": {
          "_0": "Whether the address has admin access or not"
        }
      },
      "isRenewable(uint256)": {
        "details": "Throws if `tokenId` is not a valid NFT",
        "params": {
          "tokenId": "The NFT to get the expiration date of"
        },
        "returns": {
          "_0": "The renewability of a the subscription"
        }
      },
      "isSubscriptionValid(uint256)": {
        "params": {
          "tokenId": "The unique identifier of the NFT token."
        },
        "returns": {
          "_0": "A boolean indicating if the subscription is valid."
        }
      },
      "renewSubscription(uint256,uint64)": {
        "params": {
          "duration": "The number of seconds to extend a subscription for",
          "tokenId": "The NFT to renew the subscription for"
        }
      },
      "setCre8orsNFT(address)": {
        "details": "This function can only be called by the contract admin.",
        "params": {
          "target": "The address of the new cre8ors contract."
        }
      },
      "setMaxRenewalDuration(address,uint64)": {
        "details": "This function can only be called by the admin.",
        "params": {
          "duration": "The maximum duration (in seconds) for subscription renewal."
        }
      },
      "setMinRenewalDuration(address,uint64)": {
        "details": "This function can only be called by the admin.",
        "params": {
          "duration": "The minimum duration (in seconds) for subscription renewal."
        }
      },
      "setPricePerSecond(address,uint256)": {
        "params": {
          "newPrice": "The new price per second to be set.",
          "target": "The address of the contract implementing the access control."
        }
      },
      "setRenewable(address,bool)": {
        "details": "This function can only be called by the admin.",
        "params": {
          "renewable": "Boolean flag to indicate if subscriptions are renewable."
        }
      },
      "supportsInterface(bytes4)": {
        "details": "See {IERC165-supportsInterface}."
      },
      "updateSubscription(address,uint64,uint256)": {
        "details": "This function is meant to be called by the minter when minting the NFT to subscribe.",
        "params": {
          "duration": "The duration (in seconds) to extend the subscription for.",
          "target": "The address of the contract implementing the access control",
          "tokenId": "The unique identifier of the NFT token to be subscribed."
        }
      },
      "updateSubscription(address,uint64,uint256[])": {
        "details": "No need to check for `tokenIds.length` as `isRenewalPriceValid` checks duration to not be zero.",
        "params": {
          "duration": "The duration (in seconds) to extend the subscription for.",
          "target": "The address of the contract implementing the access control",
          "tokenIds": "An array of unique identifiers of the NFT tokens to update the subscriptions for."
        }
      },
      "updateSubscriptionForFree(address,uint64,uint256)": {
        "details": "This function is meant to be called by the minter when minting the NFT to subscribe.",
        "params": {
          "duration": "The duration (in seconds) to extend the subscription for.",
          "target": "The address of the contract implementing the access control",
          "tokenId": "The unique identifier of the NFT token to be subscribed."
        }
      },
      "updateSubscriptionForFree(address,uint64,uint256[])": {
        "details": "This function is meant to be called by the minter when minting the NFT to subscribe.",
        "params": {
          "duration": "The duration (in seconds) to extend the subscription for.",
          "target": "The address of the contract implementing the access control",
          "tokenIds": "An array of unique identifiers of the NFT tokens to update the subscriptions for."
        }
      },
      "withdraw(address,address)": {
        "params": {
          "target": "The address of the contract implementing the access control.",
          "to": "The address to which the native currency should be withdrawn."
        }
      }
    },
    "version": 1
  },
  "userdoc": {
    "errors": {
      "Access_MissingOwnerOrApproved()": [
        {
          "notice": "Missing the owner role or approved nft access."
        }
      ],
      "Access_MissingRoleOrAdmin(bytes32)": [
        {
          "notice": "Missing the given role or admin access"
        }
      ],
      "Access_OnlyAdmin()": [
        {
          "notice": "Only admin can access this function"
        }
      ],
      "AddressCannotBeZero()": [
        {
          "notice": "given address is invalid."
        }
      ],
      "DurationForRenewalPriceCannotBeZero()": [
        {
          "notice": "The duration provided for renewal price calculation cannot be zero."
        }
      ],
      "ETHTransferFailed()": [
        {
          "notice": "Error message for failed ETH transfer."
        }
      ],
      "InsufficientPayment()": [
        {
          "notice": "The payment received for the subscription renewal is insufficient."
        }
      ],
      "InvalidSubscription()": [
        {
          "notice": "The subscription associated with the provided token ID is invalid or has expired."
        }
      ],
      "RenewalTooLong()": [
        {
          "notice": "The duration provided for renewal exceeds the allowed maximum for subscription extension."
        }
      ],
      "RenewalTooShort()": [
        {
          "notice": "The duration provided for renewal is too short to extend the subscription."
        }
      ],
      "SubscriptionNotRenewable()": [
        {
          "notice": "The subscription associated with the token is not renewable and cannot be extended."
        }
      ],
      "ValueCannotBeZero()": [
        {
          "notice": "Error message for zero value."
        }
      ]
    },
    "events": {
      "SubscriptionUpdate(uint256,uint64)": {
        "notice": "Emitted when a subscription expiration changes"
      }
    },
    "kind": "user",
    "methods": {
      "MINTER_ROLE()": {
        "notice": "Access control roles"
      },
      "cancelSubscription(uint256)": {
        "notice": "Cancels the subscription of an NFT"
      },
      "checkSubscription(uint256)": {
        "notice": "Checks the subscription for the given `tokenId`. Throws if `tokenId` subscription has expired."
      },
      "cre8orsNFT()": {
        "notice": "The address of the collection contract that mints and manages the tokens."
      },
      "expiresAt(uint256)": {
        "notice": "Gets the expiration date of a subscription"
      },
      "isAdmin(address,address)": {
        "notice": "Getter for admin role associated with the contract to handle minting"
      },
      "isRenewable(uint256)": {
        "notice": "Determines whether a subscription can be renewed"
      },
      "isSubscriptionValid(uint256)": {
        "notice": "Returns whether the subscription for the given `tokenId` is valid."
      },
      "maxRenewalDuration()": {
        "notice": "The maximum duration allowed for subscription renewal. A value of 0 means lifetime extension is allowed."
      },
      "minRenewalDuration()": {
        "notice": "The minimum duration allowed for subscription renewal."
      },
      "pricePerSecond()": {
        "notice": "The price per second for the subscription in native currency."
      },
      "renewSubscription(uint256,uint64)": {
        "notice": "Renews the subscription to an NFT Throws if `tokenId` is not a valid NFT"
      },
      "setCre8orsNFT(address)": {
        "notice": "Set the address of the cre8ors contract."
      },
      "setMaxRenewalDuration(address,uint64)": {
        "notice": "Sets the maximum duration for subscription renewal."
      },
      "setMinRenewalDuration(address,uint64)": {
        "notice": "Sets the minimum duration for subscription renewal."
      },
      "setPricePerSecond(address,uint256)": {
        "notice": "Sets the price per second of the native currency."
      },
      "setRenewable(address,bool)": {
        "notice": "Sets the renewability status of subscriptions."
      },
      "updateSubscription(address,uint64,uint256)": {
        "notice": "Extends the subscription for the given `tokenId` with a specified `duration`, using native currency as payment."
      },
      "updateSubscription(address,uint64,uint256[])": {
        "notice": "Extends the subscription for the given `tokenIds` with a specified `duration`, using native currency as payment."
      },
      "updateSubscriptionForFree(address,uint64,uint256)": {
        "notice": "Extends the subscription for the given `tokenId` with a specified `duration` for free."
      },
      "updateSubscriptionForFree(address,uint64,uint256[])": {
        "notice": "Extends the subscription for the given `tokenIds` with a specified `duration` for free."
      },
      "withdraw(address,address)": {
        "notice": "Withdraws the native currency from the contract to the specified address."
      }
    },
    "version": 1
  },
  "storageLayout": {
    "storage": [
      {
        "astId": 831,
        "contract": "contracts/Subscription.sol:Subscription",
        "label": "pricePerSecond",
        "offset": 0,
        "slot": "0",
        "type": "t_uint256"
      },
      {
        "astId": 445,
        "contract": "contracts/Subscription.sol:Subscription",
        "label": "_expirations",
        "offset": 0,
        "slot": "1",
        "type": "t_mapping(t_uint256,t_uint64)"
      },
      {
        "astId": 448,
        "contract": "contracts/Subscription.sol:Subscription",
        "label": "minRenewalDuration",
        "offset": 0,
        "slot": "2",
        "type": "t_uint64"
      },
      {
        "astId": 451,
        "contract": "contracts/Subscription.sol:Subscription",
        "label": "maxRenewalDuration",
        "offset": 8,
        "slot": "2",
        "type": "t_uint64"
      },
      {
        "astId": 454,
        "contract": "contracts/Subscription.sol:Subscription",
        "label": "cre8orsNFT",
        "offset": 0,
        "slot": "3",
        "type": "t_address"
      },
      {
        "astId": 12,
        "contract": "contracts/Subscription.sol:Subscription",
        "label": "_renewable",
        "offset": 20,
        "slot": "3",
        "type": "t_bool"
      }
    ],
    "types": {
      "t_address": {
        "encoding": "inplace",
        "label": "address",
        "numberOfBytes": "20"
      },
      "t_bool": {
        "encoding": "inplace",
        "label": "bool",
        "numberOfBytes": "1"
      },
      "t_mapping(t_uint256,t_uint64)": {
        "encoding": "mapping",
        "key": "t_uint256",
        "label": "mapping(uint256 => uint64)",
        "numberOfBytes": "32",
        "value": "t_uint64"
      },
      "t_uint256": {
        "encoding": "inplace",
        "label": "uint256",
        "numberOfBytes": "32"
      },
      "t_uint64": {
        "encoding": "inplace",
        "label": "uint64",
        "numberOfBytes": "8"
      }
    }
  }
}