{
  "address": "0x68Da612b94090BC2AC463d33b3594953DffB857d",
  "abi": [
    {
      "inputs": [
        {
          "internalType": "address",
          "name": "cre8orsNFT_",
          "type": "address"
        },
        {
          "internalType": "uint64",
          "name": "minRenewalDuration_",
          "type": "uint64"
        },
        {
          "internalType": "uint256",
          "name": "pricePerSecond_",
          "type": "uint256"
        }
      ],
      "stateMutability": "nonpayable",
      "type": "constructor"
    },
    {
      "inputs": [],
      "name": "Access_MissingOwnerOrApproved",
      "type": "error"
    },
    {
      "inputs": [
        {
          "internalType": "bytes32",
          "name": "role",
          "type": "bytes32"
        }
      ],
      "name": "Access_MissingRoleOrAdmin",
      "type": "error"
    },
    {
      "inputs": [],
      "name": "Access_OnlyAdmin",
      "type": "error"
    },
    {
      "inputs": [],
      "name": "ETHTransferFailed",
      "type": "error"
    },
    {
      "inputs": [],
      "name": "InsufficientPayment",
      "type": "error"
    },
    {
      "inputs": [],
      "name": "InvalidDuration",
      "type": "error"
    },
    {
      "inputs": [],
      "name": "InvalidLength",
      "type": "error"
    },
    {
      "inputs": [],
      "name": "InvalidSubscription",
      "type": "error"
    },
    {
      "inputs": [],
      "name": "LengthMismatch",
      "type": "error"
    },
    {
      "inputs": [],
      "name": "RenewalTooLong",
      "type": "error"
    },
    {
      "inputs": [],
      "name": "RenewalTooShort",
      "type": "error"
    },
    {
      "inputs": [],
      "name": "SubscriptionNotRenewable",
      "type": "error"
    },
    {
      "inputs": [],
      "name": "ValueCannotBeZero",
      "type": "error"
    },
    {
      "anonymous": false,
      "inputs": [
        {
          "indexed": false,
          "internalType": "uint256",
          "name": "newPrice",
          "type": "uint256"
        }
      ],
      "name": "PricePerSecondUpdated",
      "type": "event"
    },
    {
      "anonymous": false,
      "inputs": [
        {
          "indexed": true,
          "internalType": "uint256",
          "name": "tokenId",
          "type": "uint256"
        },
        {
          "indexed": false,
          "internalType": "uint64",
          "name": "expiration",
          "type": "uint64"
        }
      ],
      "name": "SubscriptionUpdate",
      "type": "event"
    },
    {
      "inputs": [],
      "name": "DEFAULT_SUBSCRIPTION_DURATION",
      "outputs": [
        {
          "internalType": "uint64",
          "name": "",
          "type": "uint64"
        }
      ],
      "stateMutability": "view",
      "type": "function"
    },
    {
      "inputs": [],
      "name": "MINTER_ROLE",
      "outputs": [
        {
          "internalType": "bytes32",
          "name": "",
          "type": "bytes32"
        }
      ],
      "stateMutability": "view",
      "type": "function"
    },
    {
      "inputs": [
        {
          "internalType": "uint256",
          "name": "tokenId",
          "type": "uint256"
        }
      ],
      "name": "cancelSubscription",
      "outputs": [],
      "stateMutability": "payable",
      "type": "function"
    },
    {
      "inputs": [],
      "name": "cre8orsNFT",
      "outputs": [
        {
          "internalType": "address",
          "name": "",
          "type": "address"
        }
      ],
      "stateMutability": "view",
      "type": "function"
    },
    {
      "inputs": [
        {
          "internalType": "uint256",
          "name": "tokenId",
          "type": "uint256"
        }
      ],
      "name": "expiresAt",
      "outputs": [
        {
          "internalType": "uint64",
          "name": "",
          "type": "uint64"
        }
      ],
      "stateMutability": "view",
      "type": "function"
    },
    {
      "inputs": [
        {
          "internalType": "address",
          "name": "target",
          "type": "address"
        },
        {
          "internalType": "address",
          "name": "user",
          "type": "address"
        }
      ],
      "name": "isAdmin",
      "outputs": [
        {
          "internalType": "bool",
          "name": "",
          "type": "bool"
        }
      ],
      "stateMutability": "view",
      "type": "function"
    },
    {
      "inputs": [
        {
          "internalType": "uint256",
          "name": "",
          "type": "uint256"
        }
      ],
      "name": "isRenewable",
      "outputs": [
        {
          "internalType": "bool",
          "name": "",
          "type": "bool"
        }
      ],
      "stateMutability": "view",
      "type": "function"
    },
    {
      "inputs": [
        {
          "internalType": "uint256",
          "name": "tokenId",
          "type": "uint256"
        }
      ],
      "name": "isSubscriptionValid",
      "outputs": [
        {
          "internalType": "bool",
          "name": "",
          "type": "bool"
        }
      ],
      "stateMutability": "view",
      "type": "function"
    },
    {
      "inputs": [],
      "name": "maxRenewalDuration",
      "outputs": [
        {
          "internalType": "uint64",
          "name": "",
          "type": "uint64"
        }
      ],
      "stateMutability": "view",
      "type": "function"
    },
    {
      "inputs": [],
      "name": "minRenewalDuration",
      "outputs": [
        {
          "internalType": "uint64",
          "name": "",
          "type": "uint64"
        }
      ],
      "stateMutability": "view",
      "type": "function"
    },
    {
      "inputs": [],
      "name": "pricePerSecond",
      "outputs": [
        {
          "internalType": "uint256",
          "name": "",
          "type": "uint256"
        }
      ],
      "stateMutability": "view",
      "type": "function"
    },
    {
      "inputs": [
        {
          "internalType": "uint256",
          "name": "tokenId",
          "type": "uint256"
        },
        {
          "internalType": "uint64",
          "name": "duration",
          "type": "uint64"
        }
      ],
      "name": "renewSubscription",
      "outputs": [],
      "stateMutability": "payable",
      "type": "function"
    },
    {
      "inputs": [
        {
          "internalType": "address",
          "name": "target",
          "type": "address"
        },
        {
          "internalType": "uint64",
          "name": "duration",
          "type": "uint64"
        }
      ],
      "name": "setMaxRenewalDuration",
      "outputs": [],
      "stateMutability": "nonpayable",
      "type": "function"
    },
    {
      "inputs": [
        {
          "internalType": "address",
          "name": "target",
          "type": "address"
        },
        {
          "internalType": "uint64",
          "name": "duration",
          "type": "uint64"
        }
      ],
      "name": "setMinRenewalDuration",
      "outputs": [],
      "stateMutability": "nonpayable",
      "type": "function"
    },
    {
      "inputs": [
        {
          "internalType": "address",
          "name": "target",
          "type": "address"
        },
        {
          "internalType": "uint256",
          "name": "newPrice",
          "type": "uint256"
        }
      ],
      "name": "setPricePerSecond",
      "outputs": [],
      "stateMutability": "nonpayable",
      "type": "function"
    },
    {
      "inputs": [
        {
          "internalType": "address",
          "name": "target",
          "type": "address"
        },
        {
          "internalType": "bool",
          "name": "renewable",
          "type": "bool"
        }
      ],
      "name": "setRenewable",
      "outputs": [],
      "stateMutability": "nonpayable",
      "type": "function"
    },
    {
      "inputs": [
        {
          "internalType": "bytes4",
          "name": "interfaceId",
          "type": "bytes4"
        }
      ],
      "name": "supportsInterface",
      "outputs": [
        {
          "internalType": "bool",
          "name": "",
          "type": "bool"
        }
      ],
      "stateMutability": "view",
      "type": "function"
    },
    {
      "inputs": [
        {
          "internalType": "address",
          "name": "target",
          "type": "address"
        },
        {
          "internalType": "uint64",
          "name": "duration",
          "type": "uint64"
        },
        {
          "internalType": "uint256[]",
          "name": "tokenIds",
          "type": "uint256[]"
        }
      ],
      "name": "updateSubscription",
      "outputs": [],
      "stateMutability": "payable",
      "type": "function"
    },
    {
      "inputs": [
        {
          "internalType": "address",
          "name": "target",
          "type": "address"
        },
        {
          "internalType": "uint64",
          "name": "duration",
          "type": "uint64"
        },
        {
          "internalType": "uint256",
          "name": "tokenId",
          "type": "uint256"
        }
      ],
      "name": "updateSubscription",
      "outputs": [],
      "stateMutability": "payable",
      "type": "function"
    },
    {
      "inputs": [
        {
          "internalType": "address",
          "name": "target",
          "type": "address"
        },
        {
          "internalType": "uint64",
          "name": "duration",
          "type": "uint64"
        },
        {
          "internalType": "uint256",
          "name": "tokenId",
          "type": "uint256"
        }
      ],
      "name": "updateSubscriptionForFree",
      "outputs": [],
      "stateMutability": "nonpayable",
      "type": "function"
    },
    {
      "inputs": [
        {
          "internalType": "address",
          "name": "target",
          "type": "address"
        },
        {
          "internalType": "uint64",
          "name": "duration",
          "type": "uint64"
        },
        {
          "internalType": "uint256[]",
          "name": "tokenIds",
          "type": "uint256[]"
        }
      ],
      "name": "updateSubscriptionForFree",
      "outputs": [],
      "stateMutability": "nonpayable",
      "type": "function"
    },
    {
      "inputs": [
        {
          "internalType": "uint256",
          "name": "tokenId",
          "type": "uint256"
        }
      ],
      "name": "validateSubscription",
      "outputs": [
        {
          "internalType": "bool",
          "name": "",
          "type": "bool"
        }
      ],
      "stateMutability": "view",
      "type": "function"
    },
    {
      "inputs": [
        {
          "internalType": "address",
          "name": "target",
          "type": "address"
        },
        {
          "internalType": "address payable",
          "name": "to",
          "type": "address"
        }
      ],
      "name": "withdraw",
      "outputs": [],
      "stateMutability": "nonpayable",
      "type": "function"
    }
  ],
  "transactionHash": "0xeb4cd784fac2690ebb67713f684697b0a2ea5f964a17d00861aeeb4b8534db58",
  "args": [
    "0x70997970C51812dc3A010C7d01b50e0d17dc79C8",
    86400,
    "38580246913"
  ],
  "numDeployments": 1,
  "solcInputHash": "505e651642886427083dc08950096a52",
  "bytecode": "0x608060405234801561001057600080fd5b5060405161163f38038061163f83398101604081905261002f91610077565b600055600380546001600160a01b0319166001600160a01b039390931692909217909155600280546001600160401b0319166001600160401b039092169190911790556100d2565b60008060006060848603121561008c57600080fd5b83516001600160a01b03811681146100a357600080fd5b60208501519093506001600160401b03811681146100c057600080fd5b80925050604084015190509250925092565b61155e806100e16000396000f3fe6080604052600436106101405760003560e01c806357064afe116100b6578063cde317af1161006f578063cde317af146103b8578063d5391393146103d8578063d5dca19f146103fa578063e7e25ee51461040d578063f3b8f6631461042d578063f940e3851461044d57600080fd5b806357064afe146102eb57806363d20de71461030b578063776ce8681461032b578063910067451461033e578063954689ca1461035e578063b4695d8c1461039857600080fd5b8063176f7d7c11610108578063176f7d7c1461020657806317c9570914610226578063212350831461025c57806332fb5c481461026f5780633804fd1f146102a75780634073377c146102cb57600080fd5b806301ffc9a71461014557806304394ed91461017a57806308553db91461018f578063090db029146101bf578063147e9782146101e6575b600080fd5b34801561015157600080fd5b5061016561016036600461124d565b61046d565b60405190151581526020015b60405180910390f35b61018d6101883660046112ab565b610505565b005b34801561019b57600080fd5b506101a76301e1338081565b6040516001600160401b039091168152602001610171565b3480156101cb57600080fd5b506002546101a790600160401b90046001600160401b031681565b3480156101f257600080fd5b506002546101a7906001600160401b031681565b34801561021257600080fd5b5061018d61022136600461133d565b6106f1565b34801561023257600080fd5b506101a7610241366004611372565b6000908152600160205260409020546001600160401b031690565b61018d61026a366004611372565b610748565b34801561027b57600080fd5b5060035461028f906001600160a01b031681565b6040516001600160a01b039091168152602001610171565b3480156102b357600080fd5b506102bd60005481565b604051908152602001610171565b3480156102d757600080fd5b5061018d6102e636600461133d565b6107c7565b3480156102f757600080fd5b5061018d61030636600461138b565b610810565b34801561031757600080fd5b5061018d6103263660046113b7565b610875565b61018d6103393660046113f5565b6109c1565b34801561034a57600080fd5b50610165610359366004611418565b610ad8565b34801561036a57600080fd5b50610165610379366004611372565b600090815260016020526040902054426001600160401b039091161190565b3480156103a457600080fd5b5061018d6103b33660046112ab565b610b4d565b3480156103c457600080fd5b506101656103d3366004611372565b610ccb565b3480156103e457600080fd5b506102bd60008051602061153283398151915281565b61018d6104083660046113b7565b610ce0565b34801561041957600080fd5b50610165610428366004611372565b610e83565b34801561043957600080fd5b5061018d61044836600461145f565b610ebd565b34801561045957600080fd5b5061018d610468366004611418565b610f05565b60006001600160e01b03198216638c65f84d60e01b14806104ff57506003546040516301ffc9a760e01b81526001600160e01b0319841660048201526001600160a01b03909116906301ffc9a790602401602060405180830381865afa1580156104db573d6000803e3d6000fd5b505050506040513d601f19601f820116820180604052508101906104ff919061148d565b92915050565b8360008051602061153283398151915261051f8233610ad8565b1580156105985750604051632474521560e21b8152600481018290523360248201526001600160a01b038316906391d1485490604401602060405180830381865afa158015610572573d6000803e3d6000fd5b505050506040513d601f19601f82011682018060405250810190610596919061148d565b155b156105be576040516333ba055f60e21b8152600481018290526024015b60405180910390fd5b60025485906001600160401b0390811690821610156105f05760405163e3061ca960e01b815260040160405180910390fd5b600254600160401b90046001600160401b03161580159061062657506002546001600160401b03600160401b9091048116908216115b1561064457604051633b44021f60e01b815260040160405180910390fd5b346106586001600160401b038816866114c0565b806001600160401b031660000361068257604051637616640160e01b815260040160405180910390fd5b61068b81610fcb565b8210156106ab5760405163cd1c886760e01b815260040160405180910390fd5b6000805b878110156106e4578888828181106106c9576106c96114d7565b9050602002013591506106dc828b610fe2565b6001016106af565b5050505050505050505050565b816106fc8133610ad8565b610719576040516302bd6bd160e01b815260040160405180910390fd5b600280546fffffffffffffffff00000000000000001916600160401b6001600160401b03851602179055505050565b338161075482826110c4565b61077157604051632a60827160e21b815260040160405180910390fd5b6000838152600160209081526040808320805467ffffffffffffffff191690555191825284917f2ec2be2c4b90c2cf13ecb6751a24daed6bb741ae5ed3f7371aabf9402f6d62e8910160405180910390a2505050565b816107d28133610ad8565b6107ef576040516302bd6bd160e01b815260040160405180910390fd5b6002805467ffffffffffffffff19166001600160401b038416179055505050565b8161081b8133610ad8565b610838576040516302bd6bd160e01b815260040160405180910390fd5b60008290556040518281527f9bb66cb13f624f691aedcc04a2be58c5c1d73cf9d41593070f0ff9d4f9e410b39060200160405180910390a1505050565b8260008051602061153283398151915261088f8233610ad8565b1580156109085750604051632474521560e21b8152600481018290523360248201526001600160a01b038316906391d1485490604401602060405180830381865afa1580156108e2573d6000803e3d6000fd5b505050506040513d601f19601f82011682018060405250810190610906919061148d565b155b15610929576040516333ba055f60e21b8152600481018290526024016105b5565b60025484906001600160401b03908116908216101561095b5760405163e3061ca960e01b815260040160405180910390fd5b600254600160401b90046001600160401b03161580159061099157506002546001600160401b03600160401b9091048116908216115b156109af57604051633b44021f60e01b815260040160405180910390fd5b6109b98486610fe2565b505050505050565b33826109cd82826110c4565b6109ea57604051632a60827160e21b815260040160405180910390fd5b60025483906001600160401b039081169082161015610a1c5760405163e3061ca960e01b815260040160405180910390fd5b600254600160401b90046001600160401b031615801590610a5257506002546001600160401b03600160401b9091048116908216115b15610a7057604051633b44021f60e01b815260040160405180910390fd5b3484806001600160401b0316600003610a9c57604051637616640160e01b815260040160405180910390fd5b610aa581610fcb565b821015610ac55760405163cd1c886760e01b815260040160405180910390fd5b610acf8787610fe2565b50505050505050565b604051630935e01b60e21b81526001600160a01b038281166004830152600091908416906324d7806c90602401602060405180830381865afa158015610b22573d6000803e3d6000fd5b505050506040513d601f19601f82011682018060405250810190610b46919061148d565b9392505050565b83600080516020611532833981519152610b678233610ad8565b158015610be05750604051632474521560e21b8152600481018290523360248201526001600160a01b038316906391d1485490604401602060405180830381865afa158015610bba573d6000803e3d6000fd5b505050506040513d601f19601f82011682018060405250810190610bde919061148d565b155b15610c01576040516333ba055f60e21b8152600481018290526024016105b5565b60025485906001600160401b039081169082161015610c335760405163e3061ca960e01b815260040160405180910390fd5b600254600160401b90046001600160401b031615801590610c6957506002546001600160401b03600160401b9091048116908216115b15610c8757604051633b44021f60e01b815260040160405180910390fd5b6000805b85811015610cc057868682818110610ca557610ca56114d7565b905060200201359150610cb88289610fe2565b600101610c8b565b505050505050505050565b600354600090600160a01b900460ff166104ff565b82600080516020611532833981519152610cfa8233610ad8565b158015610d735750604051632474521560e21b8152600481018290523360248201526001600160a01b038316906391d1485490604401602060405180830381865afa158015610d4d573d6000803e3d6000fd5b505050506040513d601f19601f82011682018060405250810190610d71919061148d565b155b15610d94576040516333ba055f60e21b8152600481018290526024016105b5565b60025484906001600160401b039081169082161015610dc65760405163e3061ca960e01b815260040160405180910390fd5b600254600160401b90046001600160401b031615801590610dfc57506002546001600160401b03600160401b9091048116908216115b15610e1a57604051633b44021f60e01b815260040160405180910390fd5b3485806001600160401b0316600003610e4657604051637616640160e01b815260040160405180910390fd5b610e4f81610fcb565b821015610e6f5760405163cd1c886760e01b815260040160405180910390fd5b610e798688610fe2565b5050505050505050565b600081815260016020526040812054426001600160401b0390911611806104ff57604051630fb532db60e11b815260040160405180910390fd5b81610ec88133610ad8565b610ee5576040516302bd6bd160e01b815260040160405180910390fd5b5060038054911515600160a01b0260ff60a01b1990921691909117905550565b81610f108133610ad8565b610f2d576040516302bd6bd160e01b815260040160405180910390fd5b476000819003610f50576040516363868c5560e11b815260040160405180910390fd5b6000836001600160a01b03168260405160006040518083038185875af1925050503d8060008114610f9d576040519150601f19603f3d011682016040523d82523d6000602084013e610fa2565b606091505b5050905080610fc45760405163b12d13eb60e01b815260040160405180910390fd5b5050505050565b600080546104ff906001600160401b0384166114c0565b6000828152600160205260408120546001600160401b031690811580611010575042826001600160401b0316105b156110265761101f83426114ed565b905061105d565b600354600160a01b900460ff1661105057604051638b9bff4560e01b815260040160405180910390fd5b61105a83836114ed565b90505b600084815260016020908152604091829020805467ffffffffffffffff19166001600160401b038516908117909155915191825285917f2ec2be2c4b90c2cf13ecb6751a24daed6bb741ae5ed3f7371aabf9402f6d62e8910160405180910390a250505050565b6003546040516331a9108f60e11b8152600481018390526000916001600160a01b03169082908290636352211e90602401602060405180830381865afa158015611112573d6000803e3d6000fd5b505050506040513d601f19601f820116820180604052508101906111369190611514565b9050806001600160a01b0316856001600160a01b031614806111c5575060405163e985e9c560e01b81526001600160a01b038281166004830152868116602483015283169063e985e9c590604401602060405180830381865afa1580156111a1573d6000803e3d6000fd5b505050506040513d601f19601f820116820180604052508101906111c5919061148d565b80611244575060405163020604bf60e21b8152600481018590526001600160a01b03808716919084169063081812fc90602401602060405180830381865afa158015611215573d6000803e3d6000fd5b505050506040513d601f19601f820116820180604052508101906112399190611514565b6001600160a01b0316145b95945050505050565b60006020828403121561125f57600080fd5b81356001600160e01b031981168114610b4657600080fd5b6001600160a01b038116811461128c57600080fd5b50565b80356001600160401b03811681146112a657600080fd5b919050565b600080600080606085870312156112c157600080fd5b84356112cc81611277565b93506112da6020860161128f565b925060408501356001600160401b03808211156112f657600080fd5b818701915087601f83011261130a57600080fd5b81358181111561131957600080fd5b8860208260051b850101111561132e57600080fd5b95989497505060200194505050565b6000806040838503121561135057600080fd5b823561135b81611277565b91506113696020840161128f565b90509250929050565b60006020828403121561138457600080fd5b5035919050565b6000806040838503121561139e57600080fd5b82356113a981611277565b946020939093013593505050565b6000806000606084860312156113cc57600080fd5b83356113d781611277565b92506113e56020850161128f565b9150604084013590509250925092565b6000806040838503121561140857600080fd5b823591506113696020840161128f565b6000806040838503121561142b57600080fd5b823561143681611277565b9150602083013561144681611277565b809150509250929050565b801515811461128c57600080fd5b6000806040838503121561147257600080fd5b823561147d81611277565b9150602083013561144681611451565b60006020828403121561149f57600080fd5b8151610b4681611451565b634e487b7160e01b600052601160045260246000fd5b80820281158282048414176104ff576104ff6114aa565b634e487b7160e01b600052603260045260246000fd5b6001600160401b0381811683821601908082111561150d5761150d6114aa565b5092915050565b60006020828403121561152657600080fd5b8151610b468161127756fef0887ba65ee2024ea881d91b74c2450ef19e1557f03bed3ea9f16b037cbe2dc9a164736f6c6343000813000a",
  "devdoc": {
    "events": {
      "PricePerSecondUpdated(uint256)": {
        "details": "Emitted when the native currency price is updated.",
        "params": {
          "newPrice": "The new price per second of the native currency."
        }
      },
      "SubscriptionUpdate(uint256,uint64)": {
        "details": "When a subscription is canceled, the expiration value should also be 0."
      }
    },
    "kind": "dev",
    "methods": {
      "cancelSubscription(uint256)": {
        "details": "Throws if `tokenId` is not a valid NFT",
        "params": {
          "tokenId": "The NFT to cancel the subscription for"
        }
      },
      "expiresAt(uint256)": {
        "details": "Throws if `tokenId` is not a valid NFT",
        "params": {
          "tokenId": "The NFT to get the expiration date of"
        },
        "returns": {
          "_0": "The expiration date of the subscription"
        }
      },
      "isAdmin(address,address)": {
        "params": {
          "target": "The address of the contract implementing the access control",
          "user": "The address to check for admin access"
        },
        "returns": {
          "_0": "Whether the address has admin access or not"
        }
      },
      "isRenewable(uint256)": {
        "details": "Throws if `tokenId` is not a valid NFT",
        "params": {
          "tokenId": "The NFT to get the expiration date of"
        },
        "returns": {
          "_0": "The renewability of a the subscription"
        }
      },
      "isSubscriptionValid(uint256)": {
        "params": {
          "tokenId": "The unique identifier of the NFT token."
        },
        "returns": {
          "_0": "A boolean indicating if the subscription is valid."
        }
      },
      "renewSubscription(uint256,uint64)": {
        "params": {
          "duration": "The number of seconds to extend a subscription for",
          "tokenId": "The NFT to renew the subscription for"
        }
      },
      "setMaxRenewalDuration(address,uint64)": {
        "details": "This function can only be called by the admin.",
        "params": {
          "duration": "The maximum duration (in seconds) for subscription renewal."
        }
      },
      "setMinRenewalDuration(address,uint64)": {
        "details": "This function can only be called by the admin.",
        "params": {
          "duration": "The minimum duration (in seconds) for subscription renewal."
        }
      },
      "setPricePerSecond(address,uint256)": {
        "params": {
          "newPrice": "The new price per second to be set.",
          "target": "The address of the contract implementing the access control."
        }
      },
      "setRenewable(address,bool)": {
        "details": "This function can only be called by the admin.",
        "params": {
          "renewable": "Boolean flag to indicate if subscriptions are renewable."
        }
      },
      "supportsInterface(bytes4)": {
        "details": "See {IERC165-supportsInterface}."
      },
      "updateSubscription(address,uint64,uint256)": {
        "details": "This function is meant to be called by the minter when minting the NFT to subscribe.",
        "params": {
          "duration": "The duration (in seconds) to extend the subscription for.",
          "target": "The address of the contract implementing the access control",
          "tokenId": "The unique identifier of the NFT token to be subscribed."
        }
      },
      "updateSubscription(address,uint64,uint256[])": {
        "details": "No need to check for `tokenIds.length` as `isRenewalPriceValid` checks duration to not be zero.",
        "params": {
          "duration": "The duration (in seconds) to extend the subscription for.",
          "target": "The address of the contract implementing the access control",
          "tokenIds": "An array of unique identifiers of the NFT tokens to update the subscriptions for."
        }
      },
      "updateSubscriptionForFree(address,uint64,uint256)": {
        "details": "This function is meant to be called by the minter when minting the NFT to subscribe.",
        "params": {
          "duration": "The duration (in seconds) to extend the subscription for.",
          "target": "The address of the contract implementing the access control",
          "tokenId": "The unique identifier of the NFT token to be subscribed."
        }
      },
      "updateSubscriptionForFree(address,uint64,uint256[])": {
        "details": "This function is meant to be called by the minter when minting the NFT to subscribe.",
        "params": {
          "duration": "The duration (in seconds) to extend the subscription for.",
          "target": "The address of the contract implementing the access control",
          "tokenIds": "An array of unique identifiers of the NFT tokens to update the subscriptions for."
        }
      },
      "validateSubscription(uint256)": {
        "params": {
          "tokenId": "The unique identifier of the NFT token."
        },
        "returns": {
          "_0": "A boolean indicating if the subscription is valid."
        }
      },
      "withdraw(address,address)": {
        "params": {
          "target": "The address of the contract implementing the access control.",
          "to": "The address to which the native currency should be withdrawn."
        }
      }
    },
    "version": 1
  },
  "userdoc": {
    "errors": {
      "Access_MissingOwnerOrApproved()": [
        {
          "notice": "Missing the owner role or approved nft access."
        }
      ],
      "Access_MissingRoleOrAdmin(bytes32)": [
        {
          "notice": "Missing the given role or admin access"
        }
      ],
      "Access_OnlyAdmin()": [
        {
          "notice": "Only admin can access this function"
        }
      ],
      "ETHTransferFailed()": [
        {
          "notice": "Error message for failed ETH transfer."
        }
      ],
      "InsufficientPayment()": [
        {
          "notice": "The payment received for the subscription renewal is insufficient."
        }
      ],
      "InvalidSubscription()": [
        {
          "notice": "The subscription associated with the provided token ID is invalid or has expired."
        }
      ],
      "RenewalTooLong()": [
        {
          "notice": "The duration provided for renewal exceeds the allowed maximum for subscription extension."
        }
      ],
      "RenewalTooShort()": [
        {
          "notice": "The duration provided for renewal is too short to extend the subscription."
        }
      ],
      "SubscriptionNotRenewable()": [
        {
          "notice": "The subscription associated with the token is not renewable and cannot be extended."
        }
      ],
      "ValueCannotBeZero()": [
        {
          "notice": "Error message for zero value."
        }
      ]
    },
    "events": {
      "SubscriptionUpdate(uint256,uint64)": {
        "notice": "Emitted when a subscription expiration changes"
      }
    },
    "kind": "user",
    "methods": {
      "DEFAULT_SUBSCRIPTION_DURATION()": {
        "notice": "The default duration for subscriptions, set to 365 days (1 year)."
      },
      "MINTER_ROLE()": {
        "notice": "Access control roles"
      },
      "cancelSubscription(uint256)": {
        "notice": "Cancels the subscription of an NFT"
      },
      "cre8orsNFT()": {
        "notice": "The address of the collection contract that mints and manages the tokens."
      },
      "expiresAt(uint256)": {
        "notice": "Gets the expiration date of a subscription"
      },
      "isAdmin(address,address)": {
        "notice": "Getter for admin role associated with the contract to handle minting"
      },
      "isRenewable(uint256)": {
        "notice": "Determines whether a subscription can be renewed"
      },
      "isSubscriptionValid(uint256)": {
        "notice": "Returns whether the subscription for the given `tokenId` is valid."
      },
      "maxRenewalDuration()": {
        "notice": "The maximum duration allowed for subscription renewal. A value of 0 means lifetime extension is allowed."
      },
      "minRenewalDuration()": {
        "notice": "The minimum duration allowed for subscription renewal."
      },
      "pricePerSecond()": {
        "notice": "The price per second for the subscription in native currency."
      },
      "renewSubscription(uint256,uint64)": {
        "notice": "Renews the subscription to an NFT Throws if `tokenId` is not a valid NFT"
      },
      "setMaxRenewalDuration(address,uint64)": {
        "notice": "Sets the maximum duration for subscription renewal."
      },
      "setMinRenewalDuration(address,uint64)": {
        "notice": "Sets the minimum duration for subscription renewal."
      },
      "setPricePerSecond(address,uint256)": {
        "notice": "Sets the price per second of the native currency."
      },
      "setRenewable(address,bool)": {
        "notice": "Sets the renewability status of subscriptions."
      },
      "updateSubscription(address,uint64,uint256)": {
        "notice": "Extends the subscription for the given `tokenId` with a specified `duration`, using native currency as payment."
      },
      "updateSubscription(address,uint64,uint256[])": {
        "notice": "Extends the subscription for the given `tokenIds` with a specified `duration`, using native currency as payment."
      },
      "updateSubscriptionForFree(address,uint64,uint256)": {
        "notice": "Extends the subscription for the given `tokenId` with a specified `duration` for free."
      },
      "updateSubscriptionForFree(address,uint64,uint256[])": {
        "notice": "Extends the subscription for the given `tokenIds` with a specified `duration` for free."
      },
      "validateSubscription(uint256)": {
        "notice": "Validates the subscription for the given `tokenId`. Throws if `tokenId` subscription has expired."
      },
      "withdraw(address,address)": {
        "notice": "Withdraws the native currency from the contract to the specified address."
      }
    },
    "version": 1
  },
  "storageLayout": {
    "storage": [
      {
        "astId": 775,
        "contract": "contracts/Subscription.sol:Subscription",
        "label": "pricePerSecond",
        "offset": 0,
        "slot": "0",
        "type": "t_uint256"
      },
      {
        "astId": 410,
        "contract": "contracts/Subscription.sol:Subscription",
        "label": "_expirations",
        "offset": 0,
        "slot": "1",
        "type": "t_mapping(t_uint256,t_uint64)"
      },
      {
        "astId": 413,
        "contract": "contracts/Subscription.sol:Subscription",
        "label": "minRenewalDuration",
        "offset": 0,
        "slot": "2",
        "type": "t_uint64"
      },
      {
        "astId": 416,
        "contract": "contracts/Subscription.sol:Subscription",
        "label": "maxRenewalDuration",
        "offset": 8,
        "slot": "2",
        "type": "t_uint64"
      },
      {
        "astId": 419,
        "contract": "contracts/Subscription.sol:Subscription",
        "label": "cre8orsNFT",
        "offset": 0,
        "slot": "3",
        "type": "t_address"
      },
      {
        "astId": 15,
        "contract": "contracts/Subscription.sol:Subscription",
        "label": "_renewable",
        "offset": 20,
        "slot": "3",
        "type": "t_bool"
      }
    ],
    "types": {
      "t_address": {
        "encoding": "inplace",
        "label": "address",
        "numberOfBytes": "20"
      },
      "t_bool": {
        "encoding": "inplace",
        "label": "bool",
        "numberOfBytes": "1"
      },
      "t_mapping(t_uint256,t_uint64)": {
        "encoding": "mapping",
        "key": "t_uint256",
        "label": "mapping(uint256 => uint64)",
        "numberOfBytes": "32",
        "value": "t_uint64"
      },
      "t_uint256": {
        "encoding": "inplace",
        "label": "uint256",
        "numberOfBytes": "32"
      },
      "t_uint64": {
        "encoding": "inplace",
        "label": "uint64",
        "numberOfBytes": "8"
      }
    }
  }
}